:107800000C942A3C0C94473C0C94473C0C94473C09
:107810000C94473C0C94473C0C94473C0C94473CDC
:107820000C94473C0C94473C0C94473C0C94473CCC
:107830000C94473C0C94473C0C94473C0C94473CBC
:107840000C94473C0C94473C0C94473C0C94473CAC
:107850000C94473C11241FBECFE5D8E0DEBFCDBF5E
:1078600010E0A0E6B0E0E2EBFDE702C005900D926B
:10787000A236B107D9F721E0A2E6B0E001C01D921F
:10788000AD36B207E1F70E94FB3C0C94D73E0C9456
:10789000003C5D9BFECF8CB90895CF93982F9595B2
:1078A000959595959595905D8F708A3014F0C7E504
:1078B00001C0C0E3C80F892F0E94493C8C2FCF9193
:1078C0000C94493CCF92DF92EF92FF92C12CD12CC5
:1078D00076015F9913C08FEFC81AD80AE80AF80A30
:1078E00081E0C81680E1D8068EE0E806F10488F34E
:1078F000E0916200F09163000995EBCF8CB1FF90AD
:10790000EF90DF90CF900895CF930E94623CC82FF4
:107910000E94493CC13614F089EA03C0C0331CF010
:1079200080ED8C0F01C08C2FCF910895CF930E94D2
:10793000843CC82F0E94843C90E1C99F800D112493
:10794000CF910895CF93C82FCC2321F00E94623CA1
:10795000C150FACFCF910895CF93C82F0E94623CB7
:10796000803251F484E10E94493C8C2F0E94493CB2
:1079700080E1CF910C94493C809164008F5F8093AB
:107980006400853031F4E0916200F0916300CF91A2
:107990000994CF9108950E94623C803231F484E1D1
:1079A0000E94493C80E10C94493C809164008F5FC7
:1079B00080936400853029F4E0916200F0916300C7
:1079C000099408958823B1F0C59A2FEF3FE794E01A
:1079D000215030409040E1F700C00000C5982FEFE3
:1079E0003FE794E0215030409040E1F700C00000B4
:1079F0008150E8CF08950000E0E0F0E0E4918FE2EC
:107A000089B910BC1BB886E080BD88E18AB9BD9AEF
:107A100080E00E94E23CFF24F3940E94623C8033A9
:107A200009F442C08133E1F40E94623C803209F0E3
:107A30009BC184E10E94493C81E40E94493C86E567
:107A40000E94493C82E50E94493C80E20E94493CF8
:107A500089E40E94493C83E50E94493C80E57BC162
:107A6000803439F40E94623C8638F0F00E94623C17
:107A70001BC08134A1F40E94623C803811F482E082
:107A800003C0813821F481E00E94AC3CC6CF82382B
:107A900011F480E1F9CF8839C1F583E0F5CF823464
:107AA00031F484E10E94A23C0E94CB3CB6CF8534E5
:107AB00011F485E0F7CF982F9D7F9035A9F381359C
:107AC00099F3853549F40E94623C809366000E94D8
:107AD000623C80936700E8CF8635C9F40E94623C1F
:107AE000803381F40E94623C0E94623C182F0E9405
:107AF000623C111102C08EE1C7CF113009F0BFCF37
:107B000085E9C2CF83E00E94A23C80E0BDCF8436ED
:107B100009F0C3C00E94623C809369010E94623CEC
:107B20008093680180916C018E7F80936C010E942C
:107B3000623C853429F480916C01816080936C01F2
:107B400008E610E08091680190916901980128563B
:107B500030402817390730F40E94623CF8018193C5
:107B60008F01F0CF0E94623C803209F0FDC020916D
:107B70006C01809166009091670020FF26C0880FFD
:107B8000991F909367008093660008E610E080914B
:107B900068019091690198012856304028173907EB
:107BA00008F079C0F80161918F0180916600909191
:107BB00067000E94CA3E809166009091670001961E
:107BC0009093670080936600E2CF20916700220FB8
:107BD000220B2F2120936B01880F991F9093670030
:107BE000809366008091680180FF09C080916801E0
:107BF0009091690101969093690180936801F894CE
:107C0000E199FECF1127E0916600F0916700C8E688
:107C1000D0E08091680190916901103091F4009159
:107C2000570001700130D9F303E000935700E89545
:107C30000091570001700130D9F301E10093570022
:107C4000E895099019900091570001700130D9F31F
:107C500001E000935700E8951395103498F0112730
:107C60000091570001700130D9F305E000935700EF
:107C7000E8950091570001700130D9F301E10093BC
:107C80005700E8953296029709F0C7CF103011F0EF
:107C90000296E5CF112484E15EC0843709F04BC021
:107CA0000E94623C809369010E94623C809368015B
:107CB0008091660090916700880F991F90936700EC
:107CC000809366000E94623C90916C01853411F4AF
:107CD000916001C09E7F90936C010E94623C803253
:107CE00009F09BCE84E10E94493C00E010E08091C5
:107CF0006801909169010817190778F520916C01C6
:107D0000809166009091670020FF03C00E94C23EF0
:107D100004C021FD04C0FC0184910E94493C809173
:107D200066009091670001969093670080936600CB
:107D30000F5F1F4FDCCF8537A1F40E94623C803279
:107D400099F484E10E94493C8EE10E94493C85E916
:107D50000E94493C82E00E94493C80E10E94493CEB
:107D60005CCE863709F4D1CE809164008F5F80931A
:107D70006400853009F051CEE0916200F09163001B
:107D800009954BCEE199FECF9FBB8EBBE09A992718
:107D90008DB30895262FE199FECF9FBB8EBB2DBBDF
:107DA0000FB6F894E29AE19A0FBE01960895F894FE
:027DB000FFCF03
:027DB20080004F
:040000030000780081
:00000001FF
